{
  "contractName": "Dog",
  "abi": [
    {
      "inputs": [],
      "stateMutability": "nonpayable",
      "type": "constructor"
    },
    {
      "inputs": [],
      "name": "_initialized",
      "outputs": [
        {
          "internalType": "bool",
          "name": "",
          "type": "bool"
        }
      ],
      "stateMutability": "view",
      "type": "function"
    },
    {
      "inputs": [],
      "name": "owner",
      "outputs": [
        {
          "internalType": "address",
          "name": "",
          "type": "address"
        }
      ],
      "stateMutability": "view",
      "type": "function"
    },
    {
      "inputs": [],
      "name": "getNumberOfDogs",
      "outputs": [
        {
          "internalType": "uint256",
          "name": "",
          "type": "uint256"
        }
      ],
      "stateMutability": "view",
      "type": "function"
    },
    {
      "inputs": [
        {
          "internalType": "uint256",
          "name": "num",
          "type": "uint256"
        }
      ],
      "name": "setNumberOfDogs",
      "outputs": [],
      "stateMutability": "nonpayable",
      "type": "function"
    }
  ],
  "bytecode": "0x608060405234801561001057600080fd5b5033600560006101000a81548173ffffffffffffffffffffffffffffffffffffffff021916908373ffffffffffffffffffffffffffffffffffffffff1602179055506102f9806100616000396000f3fe608060405234801561001057600080fd5b506004361061004c5760003560e01c806314861b22146100515780631680a5ed1461006d5780633072cf601461008b5780638da5cb5b146100a9575b600080fd5b61006b6004803603810190610066919061015d565b6100c7565b005b6100756100eb565b604051610082919061023e565b60405180910390f35b61009361010f565b6040516100a09190610223565b60405180910390f35b6100b1610122565b6040516100be9190610208565b60405180910390f35b8060016040516100d6906101f3565b90815260200160405180910390208190555050565b600060016040516100fb906101f3565b908152602001604051809103902054905090565b600560149054906101000a900460ff1681565b600560009054906101000a900473ffffffffffffffffffffffffffffffffffffffff1681565b600081359050610157816102ac565b92915050565b60006020828403121561016f57600080fd5b600061017d84828501610148565b91505092915050565b61018f81610264565b82525050565b61019e81610276565b82525050565b60006101b1600383610259565b91507f446f6700000000000000000000000000000000000000000000000000000000006000830152600382019050919050565b6101ed816102a2565b82525050565b60006101fe826101a4565b9150819050919050565b600060208201905061021d6000830184610186565b92915050565b60006020820190506102386000830184610195565b92915050565b600060208201905061025360008301846101e4565b92915050565b600081905092915050565b600061026f82610282565b9050919050565b60008115159050919050565b600073ffffffffffffffffffffffffffffffffffffffff82169050919050565b6000819050919050565b6102b5816102a2565b81146102c057600080fd5b5056fea2646970667358221220a2948f94a497e94ed81e7c375b2f658df6051dbdffa481fec783f9e489ab5c7d64736f6c63430008000033",
  "immutableReferences": {},
  "source": "pragma solidity 0.8.0;\n\nimport \"./Storage.sol\";\n\ncontract Dog is Storage{\n\n    modifier onlyOwner{\n        require(owner==msg.sender);\n        _;\n    }\n\n    constructor(){\n        owner = msg.sender;\n    }\n\n    function getNumberOfDogs() public view returns(uint){\n        return _uintStorage[\"Dog\"];\n    }\n    function setNumberOfDogs(uint num) public{\n        _uintStorage[\"Dog\"] = num;\n    }\n} ",
  "sourcePath": "/Users/yanjun/Desktop/SmartContractSecurity/upgradeableContract/proxyContract/contracts/Dogs.sol",
  "compiler": {
    "name": "solc",
    "version": "0.8.0+commit.c7dfd78e.Emscripten.clang"
  },
  "schemaVersion": "3.4.1",
  "updatedAt": "2021-06-04T04:19:20.068Z",
  "devdoc": {
    "kind": "dev",
    "methods": {},
    "version": 1
  },
  "userdoc": {
    "kind": "user",
    "methods": {},
    "version": 1
  }
}