{
  "contractName": "DogUpgraded",
  "abi": [
    {
      "inputs": [],
      "stateMutability": "nonpayable",
      "type": "constructor"
    },
    {
      "inputs": [],
      "name": "_initialized",
      "outputs": [
        {
          "internalType": "bool",
          "name": "",
          "type": "bool"
        }
      ],
      "stateMutability": "view",
      "type": "function"
    },
    {
      "inputs": [],
      "name": "owner",
      "outputs": [
        {
          "internalType": "address",
          "name": "",
          "type": "address"
        }
      ],
      "stateMutability": "view",
      "type": "function"
    },
    {
      "inputs": [],
      "name": "getNumberOfDogs",
      "outputs": [
        {
          "internalType": "uint256",
          "name": "",
          "type": "uint256"
        }
      ],
      "stateMutability": "view",
      "type": "function"
    },
    {
      "inputs": [
        {
          "internalType": "uint256",
          "name": "num",
          "type": "uint256"
        }
      ],
      "name": "setNumberOfDogs",
      "outputs": [],
      "stateMutability": "nonpayable",
      "type": "function"
    }
  ],
  "bytecode": "0x608060405234801561001057600080fd5b5033600560006101000a81548173ffffffffffffffffffffffffffffffffffffffff021916908373ffffffffffffffffffffffffffffffffffffffff160217905550610353806100616000396000f3fe608060405234801561001057600080fd5b506004361061004c5760003560e01c806314861b22146100515780631680a5ed1461006d5780633072cf601461008b5780638da5cb5b146100a9575b600080fd5b61006b600480360381019061006691906101b7565b6100c7565b005b610075610145565b6040516100829190610298565b60405180910390f35b610093610169565b6040516100a0919061027d565b60405180910390f35b6100b161017c565b6040516100be9190610262565b60405180910390f35b3373ffffffffffffffffffffffffffffffffffffffff16600560009054906101000a900473ffffffffffffffffffffffffffffffffffffffff1673ffffffffffffffffffffffffffffffffffffffff161461012157600080fd5b8060016040516101309061024d565b90815260200160405180910390208190555050565b600060016040516101559061024d565b908152602001604051809103902054905090565b600560149054906101000a900460ff1681565b600560009054906101000a900473ffffffffffffffffffffffffffffffffffffffff1681565b6000813590506101b181610306565b92915050565b6000602082840312156101c957600080fd5b60006101d7848285016101a2565b91505092915050565b6101e9816102be565b82525050565b6101f8816102d0565b82525050565b600061020b6003836102b3565b91507f446f6700000000000000000000000000000000000000000000000000000000006000830152600382019050919050565b610247816102fc565b82525050565b6000610258826101fe565b9150819050919050565b600060208201905061027760008301846101e0565b92915050565b600060208201905061029260008301846101ef565b92915050565b60006020820190506102ad600083018461023e565b92915050565b600081905092915050565b60006102c9826102dc565b9050919050565b60008115159050919050565b600073ffffffffffffffffffffffffffffffffffffffff82169050919050565b6000819050919050565b61030f816102fc565b811461031a57600080fd5b5056fea26469706673582212208bf40cd604b34d2b5794363cbfd1cd39f515c125d57ffbd534a8f27919360f2264736f6c63430008000033",
  "immutableReferences": {},
  "source": "pragma solidity 0.8.0;\n\nimport \"./Storage.sol\";\n\ncontract DogUpgraded is Storage{\n\n    modifier onlyOwner{\n        require(owner==msg.sender);\n        _;\n    }\n\n    constructor(){\n        owner = msg.sender;\n    }\n\n    function getNumberOfDogs() public view returns(uint){\n        return _uintStorage[\"Dog\"];\n    }\n    function setNumberOfDogs(uint num) public onlyOwner{\n        _uintStorage[\"Dog\"] = num;\n    }\n} ",
  "sourcePath": "/Users/yanjun/Desktop/SmartContractSecurity/upgradeableContract/proxyContract/contracts/DogsUpgraded.sol",
  "compiler": {
    "name": "solc",
    "version": "0.8.0+commit.c7dfd78e.Emscripten.clang"
  },
  "schemaVersion": "3.4.1",
  "updatedAt": "2021-06-04T13:41:12.311Z",
  "devdoc": {
    "kind": "dev",
    "methods": {},
    "version": 1
  },
  "userdoc": {
    "kind": "user",
    "methods": {},
    "version": 1
  }
}