{
  "contractName": "DogUpgraded",
  "abi": [
    {
      "inputs": [],
      "stateMutability": "nonpayable",
      "type": "constructor"
    },
    {
      "inputs": [],
      "name": "_initialized",
      "outputs": [
        {
          "internalType": "bool",
          "name": "",
          "type": "bool"
        }
      ],
      "stateMutability": "view",
      "type": "function",
      "constant": true
    },
    {
      "inputs": [],
      "name": "owner",
      "outputs": [
        {
          "internalType": "address",
          "name": "",
          "type": "address"
        }
      ],
      "stateMutability": "view",
      "type": "function",
      "constant": true
    },
    {
      "inputs": [
        {
          "internalType": "address",
          "name": "_owner",
          "type": "address"
        }
      ],
      "name": "initialize",
      "outputs": [],
      "stateMutability": "nonpayable",
      "type": "function"
    },
    {
      "inputs": [],
      "name": "getNumberOfDogs",
      "outputs": [
        {
          "internalType": "uint256",
          "name": "",
          "type": "uint256"
        }
      ],
      "stateMutability": "view",
      "type": "function",
      "constant": true
    },
    {
      "inputs": [
        {
          "internalType": "uint256",
          "name": "num",
          "type": "uint256"
        }
      ],
      "name": "setNumberOfDogs",
      "outputs": [],
      "stateMutability": "nonpayable",
      "type": "function"
    }
  ],
  "bytecode": "0x608060405234801561001057600080fd5b506100203361002560201b60201c565b61009e565b600560149054906101000a900460ff161561003f57600080fd5b80600560006101000a81548173ffffffffffffffffffffffffffffffffffffffff021916908373ffffffffffffffffffffffffffffffffffffffff1602179055506001600560146101000a81548160ff02191690831515021790555050565b610448806100ad6000396000f3fe608060405234801561001057600080fd5b50600436106100575760003560e01c806314861b221461005c5780631680a5ed146100785780633072cf60146100965780638da5cb5b146100b4578063c4d66de8146100d2575b600080fd5b61007660048036038101906100719190610295565b6100ee565b005b61008061016c565b60405161008d9190610376565b60405180910390f35b61009e610190565b6040516100ab919061035b565b60405180910390f35b6100bc6101a3565b6040516100c99190610340565b60405180910390f35b6100ec60048036038101906100e7919061026c565b6101c9565b005b3373ffffffffffffffffffffffffffffffffffffffff16600560009054906101000a900473ffffffffffffffffffffffffffffffffffffffff1673ffffffffffffffffffffffffffffffffffffffff161461014857600080fd5b8060016040516101579061032b565b90815260200160405180910390208190555050565b6000600160405161017c9061032b565b908152602001604051809103902054905090565b600560149054906101000a900460ff1681565b600560009054906101000a900473ffffffffffffffffffffffffffffffffffffffff1681565b600560149054906101000a900460ff16156101e357600080fd5b80600560006101000a81548173ffffffffffffffffffffffffffffffffffffffff021916908373ffffffffffffffffffffffffffffffffffffffff1602179055506001600560146101000a81548160ff02191690831515021790555050565b600081359050610251816103e4565b92915050565b600081359050610266816103fb565b92915050565b60006020828403121561027e57600080fd5b600061028c84828501610242565b91505092915050565b6000602082840312156102a757600080fd5b60006102b584828501610257565b91505092915050565b6102c78161039c565b82525050565b6102d6816103ae565b82525050565b60006102e9600383610391565b91507f446f6700000000000000000000000000000000000000000000000000000000006000830152600382019050919050565b610325816103da565b82525050565b6000610336826102dc565b9150819050919050565b600060208201905061035560008301846102be565b92915050565b600060208201905061037060008301846102cd565b92915050565b600060208201905061038b600083018461031c565b92915050565b600081905092915050565b60006103a7826103ba565b9050919050565b60008115159050919050565b600073ffffffffffffffffffffffffffffffffffffffff82169050919050565b6000819050919050565b6103ed8161039c565b81146103f857600080fd5b50565b610404816103da565b811461040f57600080fd5b5056fea2646970667358221220b721dc085e5a9a763eece27c578f011837af61f8d56acdd5bd621dbad0aae4dd64736f6c63430008000033",
  "immutableReferences": {},
  "source": "pragma solidity 0.8.0;\n\nimport \"./Storage.sol\";\n\ncontract DogUpgraded is Storage{\n\n    modifier onlyOwner{\n        require(owner==msg.sender);\n        _;\n    }\n\n    constructor(){\n        initialize(msg.sender);\n    }\n\n    function initialize(address _owner) public { // should be only run once\n        require(!_initialized);\n        owner = _owner;\n        _initialized = true;\n\n\n    }\n\n    function getNumberOfDogs() public view returns(uint){\n        return _uintStorage[\"Dog\"];\n    }\n    function setNumberOfDogs(uint num) public onlyOwner{\n        _uintStorage[\"Dog\"] = num;\n    }\n} ",
  "sourcePath": "/Users/yanjun/Desktop/SmartContractSecurity/upgradeableContract/proxyContract/contracts/DogsUpgraded.sol",
  "compiler": {
    "name": "solc",
    "version": "0.8.0+commit.c7dfd78e.Emscripten.clang"
  },
  "schemaVersion": "3.4.1",
  "updatedAt": "2021-06-04T14:32:04.683Z",
  "networkType": "ethereum",
  "devdoc": {
    "kind": "dev",
    "methods": {},
    "version": 1
  },
  "userdoc": {
    "kind": "user",
    "methods": {},
    "version": 1
  }
}