{
  "contractName": "Proxy",
  "abi": [
    {
      "inputs": [
        {
          "internalType": "address",
          "name": "_currentAddress",
          "type": "address"
        }
      ],
      "stateMutability": "nonpayable",
      "type": "constructor"
    },
    {
      "stateMutability": "payable",
      "type": "fallback",
      "payable": true
    },
    {
      "inputs": [],
      "name": "_initialized",
      "outputs": [
        {
          "internalType": "bool",
          "name": "",
          "type": "bool"
        }
      ],
      "stateMutability": "view",
      "type": "function",
      "constant": true
    },
    {
      "inputs": [],
      "name": "owner",
      "outputs": [
        {
          "internalType": "address",
          "name": "",
          "type": "address"
        }
      ],
      "stateMutability": "view",
      "type": "function",
      "constant": true
    },
    {
      "inputs": [
        {
          "internalType": "address",
          "name": "_newAddress",
          "type": "address"
        }
      ],
      "name": "upgrade",
      "outputs": [],
      "stateMutability": "nonpayable",
      "type": "function"
    }
  ],
  "bytecode": "0x608060405234801561001057600080fd5b506040516104533803806104538339818101604052810190610032919061008e565b80600660006101000a81548173ffffffffffffffffffffffffffffffffffffffff021916908373ffffffffffffffffffffffffffffffffffffffff16021790555050610100565b600081519050610088816100e9565b92915050565b6000602082840312156100a057600080fd5b60006100ae84828501610079565b91505092915050565b60006100c2826100c9565b9050919050565b600073ffffffffffffffffffffffffffffffffffffffff82169050919050565b6100f2816100b7565b81146100fd57600080fd5b50565b6103448061010f6000396000f3fe6080604052600436106100385760003560e01c80630900f0101461012b5780633072cf60146101545780638da5cb5b1461017f57610039565b5b600073ffffffffffffffffffffffffffffffffffffffff16600660009054906101000a900473ffffffffffffffffffffffffffffffffffffffff1673ffffffffffffffffffffffffffffffffffffffff16141561009557600080fd5b6000600660009054906101000a900473ffffffffffffffffffffffffffffffffffffffff169050600080368080601f016020809104026020016040519081016040528093929190818152602001838380828437600081840152601f19601f820116905080830192505050505050509050600080825160208401855af43d604051816000823e8260008114610127578282f35b8282fd5b34801561013757600080fd5b50610152600480360381019061014d919061023c565b6101aa565b005b34801561016057600080fd5b506101696101ee565b604051610176919061029e565b60405180910390f35b34801561018b57600080fd5b50610194610201565b6040516101a19190610283565b60405180910390f35b80600660006101000a81548173ffffffffffffffffffffffffffffffffffffffff021916908373ffffffffffffffffffffffffffffffffffffffff16021790555050565b600560149054906101000a900460ff1681565b600560009054906101000a900473ffffffffffffffffffffffffffffffffffffffff1681565b600081359050610236816102f7565b92915050565b60006020828403121561024e57600080fd5b600061025c84828501610227565b91505092915050565b61026e816102b9565b82525050565b61027d816102cb565b82525050565b60006020820190506102986000830184610265565b92915050565b60006020820190506102b36000830184610274565b92915050565b60006102c4826102d7565b9050919050565b60008115159050919050565b600073ffffffffffffffffffffffffffffffffffffffff82169050919050565b610300816102b9565b811461030b57600080fd5b5056fea264697066735822122057a2904e6da28b8101dd4fee2ed2a980c9b7181a3c43ca5e3ad6addfda7e459e64736f6c63430008000033",
  "immutableReferences": {},
  "source": "pragma solidity 0.8.0;\n\nimport \"./Storage.sol\";\n\ncontract Proxy is Storage{\n    \n    address currentAddress;\n\n    constructor(address _currentAddress) {\n        currentAddress = _currentAddress;\n    }\n\n    //when error happens in the current working functional contract, call\n    // upgrade() to change to new functional contract address without\n    //losing current state\n    function upgrade(address _newAddress) public{\n        currentAddress = _newAddress;\n    }\n\n    fallback() external payable{\n        require(currentAddress != address(0));\n        address implementation = currentAddress; \n        bytes memory data = msg.data; // all the info of the fucntion call\n\n        assembly{\n            let result := delegatecall(gas(), implementation, add(data,0x20), mload(data) , 0, 0)\n            let size := returndatasize()\n            let ptr := mload(0x40) //consult this location if we can save this varible\n            returndatacopy(ptr, 0, size)\n            switch result\n            case 0 {revert(ptr,size)} //failed\n            default {return(ptr, size)} //succeed\n\n        }\n    }\n\n\n    // receive() external payable{\n        \n    // }\n\n\n\n}",
  "sourcePath": "/Users/yanjun/Desktop/SmartContractSecurity/upgradeableContract/proxyContract/contracts/Proxy.sol",
  "compiler": {
    "name": "solc",
    "version": "0.8.0+commit.c7dfd78e.Emscripten.clang"
  },
  "schemaVersion": "3.4.1",
  "updatedAt": "2021-06-04T13:32:31.949Z",
  "networkType": "ethereum",
  "devdoc": {
    "kind": "dev",
    "methods": {},
    "version": 1
  },
  "userdoc": {
    "kind": "user",
    "methods": {},
    "version": 1
  }
}